:020000040800F2
:10000000005000200D130008D1030008D30300089E
:10001000D5030008D7030008D9030008000000003A
:10002000000000000000000000000000DB030008EA
:10003000DD03000800000000DF030008E103000802
:1000400055130008551300085513000855130008F0
:1000500055130008551300085513000855130008E0
:1000600055130008551300085513000855130008D0
:1000700055130008551300085513000855130008C0
:1000800055130008551300085513000855130008B0
:1000900055130008551300085513000855130008A0
:1000A0005513000855130008551300085513000890
:1000B0005513000855130008551300085513000880
:1000C0005513000855130008551300085513000870
:1000D0005513000855130008551300085513000860
:1000E00055130008551300085513000800000000C0
:1000F0000000000000000000000000000000000000
:0C01000000000000000000005FF808F1A3
:10010C0010B5054C237833B9044B13B10448AFF345
:10011C0000800123237010BD0C00002000000000A3
:10012C00B013000808B5034B1BB103490348AFF3E8
:10013C00008008BD0000000010000020B013000873
:10014C0084B0134B9A6942F010029A619A6902F0DA
:10015C0010020092009A9A6942F020029A619A6900
:10016C0002F020020192019A9A6942F004029A610B
:10017C009A6902F004020292029A9A6942F0080209
:10018C009A619B6903F008030393039B04B07047C7
:10019C000010024070B596B000241294139414947D
:1001AC0015941094119409940A940B940C940D9436
:1001BC000E940F942022214601A801F0EBF82B4D50
:1001CC002B4B2B604FF47A536B60AC604FF47A7608
:1001DC00EE602C616C61AC61284600F087FE4FF438
:1001EC008053129312A9284600F03CFF284600F0D9
:1001FC00A8FE1094119410A9284601F023F830237E
:10020C00099301230A930B940C940D940E940F9460
:10021C00224609A9284600F0F1FE4FF4FA730A931E
:10022C00042209A9284600F0E9FE40F2EE230A93C5
:10023C00082209A9284600F0E1FE0A960C2209A919
:10024C00284600F0DBFE0194029403940494059478
:10025C004FF400530693089401A9284601F026F8A0
:10026C00284600F087F816B070BD00BF28000020AB
:10027C00002C014030B591B02022002107A801F0DC
:10028C0089F80024019402940394049405940225A3
:10029C00069501230A9310230B930D954FF46013CD
:1002AC000F9306A800F042FA0F23019302959023B6
:1002BC0003934FF4806304930594294601A800F03E
:1002CC0075FC11B030BD000008B500F0ADF8FFF7BB
:1002DC00D1FFFFF735FFFFF75DFF094C00212046EA
:1002EC0000F03EFF0421204600F03AFF0821204692
:1002FC0000F036FF0C21204600F032FFFEE700BF75
:10030C002800002082B00E4B9A6942F001029A61DB
:10031C009A6902F001020092009ADA6942F0805266
:10032C00DA61DB6903F080530193019B054A536842
:10033C0023F0E06343F00073536002B0704700BFDA
:10034C0000100240000001400268094B9A4200D0A4
:10035C00704782B003F564439A6942F400629A6173
:10036C009B6903F400630193019B02B0704700BFCB
:10037C00002C014000B587B0002302930393049333
:10038C00059302680D4B9A4202D007B05DF804FB4E
:10039C0003F564439A6942F004029A619B6903F085
:1003AC0004030193019B4FF47063029302230393A4
:1003BC00059302A9024800F0B7F8E6E7002C0140CB
:1003CC00000801407047FEE7FEE7FEE7FEE77047D6
:1003DC007047704708B500F039F808BD7047000049
:1003EC0010B504460E4B18784FF47A73B3FBF0F348
:1003FC000C4A1068B0FBF3F000F080F868B90F2CD1
:10040C0001D901200AE0002221464FF0FF3000F014
:10041C0041F8034B5C60002000E0012010BD00BFE0
:10042C00040000200000002008B5074A136843F0C0
:10043C0010031360032000F01BF80020FFF7D0FF1F
:10044C00FFF760FF002008BD00200240034A11683E
:10045C00034B1B780B441360704700BF70000020E7
:10046C0004000020014B1868704700BF700000208A
:10047C00074AD36823F4E0631B041B0C000200F44E
:10048C00E060184340F0BF6040F40030D06070472B
:10049C0000ED00E030B4174BDB68C3F30223C3F16B
:1004AC000704042C28BF04241D1D062D18D9033B5A
:1004BC004FF0FF3505FA04F421EA0401994005FADE
:1004CC0003F322EA0303194300280BDB0901C9B229
:1004DC0000F1604000F5614080F8001330BC7047BB
:1004EC000023E5E700F00F000901C9B2024B1954D3
:1004FC00F4E700BF00ED00E014ED00E00138B0F1CE
:10050C00807F0AD2064B5860064AF02182F82310ED
:10051C000020986007221A6070470120704700BFC6
:10052C0010E000E000ED00E0F0B482B000263246AE
:10053C00A2E0002D5AD0012D00D1CE68FF2B69D836
:10054C008446FF2B69D89500DCF800400F27AF409C
:10055C0024EA070406FA05F52C43CCF800404C6855
:10056C0014F0805F00F087805F4CA56945F00105B1
:10057C00A561A46904F001040194019C9508AF1CC9
:10058C005A4C54F8274002F00307BF004FF00F0CF1
:10059C000CFA07FC24EA0C0C554CA04243D004F591
:1005AC008064A04200F0818004F58064A0427ED07B
:1005BC0004F58064A04234D0042435E04D4FBD4294
:1005CC0014D00BD94C4FBD4210D007F58037BD422B
:1005DC000CD0A7F58017BD42B0D107E0A7F5801766
:1005EC00BD4203D007F58037BD42A7D18D687DB1E0
:1005FC00012D08D044610826A0E7CE6808369DE797
:10060C00CE680C369AE70461082697E7002695E732
:10061C00042693E700F1040C93E7A2F10805AD0062
:10062C0092E7032400E00024BC4044EA0C040235A9
:10063C002E4F47F825404C6814F4803F39D02F4D8D
:10064C002C681C432C604C6814F4003F37D02B4DA5
:10065C006C681C436C604C6814F4801F35D0274DBB
:10066C00AC681C43AC604C6814F4001F33D0234DB1
:10067C00EC682343EB6001320B6833FA02F430D0A0
:10068C000124944023409C42F5D14D68122DB7D0E3
:10069C0094D8022DB1D07FF64CAF032DB6D0112DCE
:1006AC007FF44CAFCE68043648E70124BCE7022443
:1006BC00BAE7124D2C6824EA03042C60C3E70F4DF3
:1006CC006C6824EA03046C60C5E70C4DAC6824EA42
:1006DC000304AC60C7E7094DEC6824EA0303EB6044
:1006EC00C9E702B0F0BC70470010024000000140A6
:1006FC0000080140000021100000311000040140EE
:10070C0082B0084B1B68084AA2FB03235B0A00FB60
:10071C0003F0019000BF019B5A1E0192002BF9D1EE
:10072C0002B0704700000020D34D6210002800F08A
:10073C00F58170B582B00446036813F0010F2CD01C
:10074C00AB4B5B6803F00C03042B1DD0A84B5B6810
:10075C0003F00C03082B12D06368B3F5803F41D033
:10076C00002B55D103F1804303F504331A6822F4AE
:10077C0080321A601A6822F480221A6037E09C4B8F
:10078C005B6813F4803FE7D0994B1B6813F4003F70
:10079C0003D06368002B00F0C381236813F0020FB1
:1007AC0076D0934B5B6813F00C0F5FD0904B5B686B
:1007BC0003F00C03082B54D02369002B00F08A8023
:1007CC008C4B01221A60FFF74DFE0546884B1B68C7
:1007DC0013F0020F75D1FFF745FE401B0228F5D927
:1007EC000320A0E1824A136843F4803313606368EA
:1007FC0043B3FFF737FE05467D4B1B6813F4003FF0
:10080C00CBD1FFF72FFE401B6428F5D903208AE1DA
:10081C00B3F5A02F09D0764B1A6822F480321A60F7
:10082C001A6822F480221A60E1E703F18043A3F5F1
:10083C003C331A6842F480221A601A6842F48032FF
:10084C001A60D4E7FFF70EFE0546694B1B6813F4DC
:10085C00003FA2D0FFF706FE401B6428F5D9032009
:10086C0061E1634B5B6813F4803FA5D1604B1B685F
:10087C0013F0020F04D02369012B01D0012052E1A7
:10088C005B4A136823F0F803616943EAC103136000
:10089C00236813F0080F32D0A369002B5BD0564BA2
:1008AC0001221A60FFF7DEFD0546514B5B6A13F01F
:1008BC00020F21D1FFF7D6FD401B0228F5D90320EA
:1008CC0031E14B4A136823F0F803616943EAC10331
:1008DC001360DDE7474B00221A60FFF7C3FD0546A6
:1008EC00434B1B6813F0020FD2D0FFF7BBFD401B2C
:1008FC000228F5D9032016E10120FFF701FF236838
:10090C0013F0040F00F09880394BDB6913F0805F13
:10091C0033D1374BDA6942F08052DA61DB6903F08C
:10092C0080530193019B0125344B1B6813F4807F8A
:10093C0025D0E368012B36D0002B4CD103F180433A
:10094C0003F504331A6A22F001021A621A6A22F0C1
:10095C0004021A622CE0284B00221A60FFF782FD79
:10096C000546234B5B6A13F0020FC8D0FFF77AFDE4
:10097C00401B0228F5D90320D5E00025D4E71F4AF7
:10098C00136843F480731360FFF76CFD06461B4B32
:10099C001B6813F4807FCCD1FFF764FD801B6428A7
:1009AC00F5D90320BFE0124A136A43F00103136226
:1009BC00E3687BB3FFF756FD06460D4B1B6A13F03D
:1009CC00020F38D1FFF74EFD801B41F2883398425D
:1009DC00F3D90320A7E0052B12D0054B1A6A22F09D
:1009EC0001021A621A6A22F004021A62E0E700BFDE
:1009FC00001002400000424280044242007000405D
:100A0C004C4B1A6A42F004021A621A6A42F0010252
:100A1C001A62CDE7FFF726FD0646464B1B6A13F01C
:100A2C00020F08D0FFF71EFD801B41F2883398425D
:100A3C00F3D9032077E0E5B9E369002B72D03D4A86
:100A4C00526802F00C02082A56D0022B17D03A4BEF
:100A5C0000221A60FFF706FD0446364B1B6813F0A4
:100A6C00007F47D0FFF7FEFC001B0228F5D90320BE
:100A7C0059E0304AD36923F08053D361DCE72E4B25
:100A8C0000221A60FFF7EEFC05462A4B1B6813F098
:100A9C00007F06D0FFF7E6FC401B0228F5D90320A7
:100AAC0041E0236AB3F5803F1AD022494B6823F406
:100ABC007413226A606A024313434B601E4B01227B
:100ACC001A60FFF7CFFC04461A4B1B6813F0007F2B
:100ADC000ED1FFF7C7FC001B0228F5D9032022E03A
:100AEC00144A536823F40033A1680B435360DCE7CA
:100AFC00002018E0002016E0012B16D00D4B5B688F
:100B0C0003F48031226A914201D001200BE003F4FE
:100B1C007013626A93420AD0012004E001207047EE
:100B2C00012000E0002002B070BD0120FBE7002096
:100B3C00F9E700BF001002406000424210B487B0D9
:100B4C00164C94E80F000DF1180C0CE90F00238AD9
:100B5C00ADF80430124B5B6803F00C02082A1AD172
:100B6C00C3F38342624412F8102C13F4803F05D176
:100B7C000C4800FB02F007B010BC7047084B5B68D8
:100B8C00C3F34043634413F8143C074800FB02F0E2
:100B9C00B0FBF3F0EFE70448EDE700BFE01300080B
:100BAC000010024000093D0000127A00002800F0FD
:100BBC00A38070B50446524B1B6803F007038B42AD
:100BCC000CD24F4A136823F007030B4313601368CE
:100BDC0003F007038B4201D0012070BD236813F092
:100BEC00020F17D013F0040F04D0464A536843F495
:100BFC00E0635360236813F0080F04D0414A536834
:100C0C0043F4605353603F4A536823F0F003A068E9
:100C1C00034353600D46236813F0010F31D0636812
:100C2C00012B20D0022B25D0364A126812F0020F6D
:100C3C0064D034494A6822F0030213434B60FFF737
:100C4C0011FC06462F4B5B6803F00C036268B3EB98
:100C5C00820F16D0FFF706FC801B41F288339842B6
:100C6C00F0D90320B9E7274A126812F4003FE0D10B
:100C7C000120B2E7234A126812F0007FD9D101207B
:100C8C00ABE71F4B1B6803F00703AB420CD91C4AA4
:100C9C00136823F007032B431360136803F0070357
:100CAC00AB4201D0012098E7236813F0040F06D063
:100CBC00144A536823F4E063E1680B4353602368E0
:100CCC0013F0080F07D00F4A536823F460532169BF
:100CDC0043EAC1035360FFF731FF0A4B5B68C3F370
:100CEC000313094AD35CD840084B1860084B1868AA
:100CFC00FFF776FB002070E70120704701206CE7BE
:100D0C000020024000100240C81300080000002020
:100D1C000800002070B4036A23F001030362036A25
:100D2C004268846924F073040D6845EA040623F0D4
:100D3C0002048B6823430D4DA84209D00B4DA842E9
:100D4C000DD0426086614A684263036270BC704792
:100D5C0023F00803CC68234323F00403EEE722F4CA
:100D6C0040724C6914438A692243EAE7002C014023
:100D7C0030B4036A23F480730362036A4268C46963
:100D8C0024F073040D682C4323F400738D6843EA3C
:100D9C0005230F4DA84209D00D4DA8420ED042603C
:100DAC00C4614A68C263036230BC704723F40063B9
:100DBC00CD6843EA052323F48063EDE722F4405227
:100DCC004D6942EA05128D6942EA0512E7E700BF58
:100DDC00002C014030B4036A23F480530362036A8D
:100DEC004468C26922F4E6420D6842EA052223F403
:100DFC0000538D6843EA0533074DA84206D0446082
:100E0C00C2614A680264036230BC704724F48044B7
:100E1C004D6944EA8514F2E7002C014010B4036AD2
:100E2C00046A24F001040462846924F0F00444EAA6
:100E3C00021223F00A030B438261036210BC704759
:100E4C0010B4036A23F0100303628469036A24F468
:100E5C00704444EA023223F0A00343EA0113826196
:100E6C00036210BC7047836823F07003194341F090
:100E7C00070181607047704703681B4A90420AD093
:100E8C00B0F1804F07D0A2F59432904203D002F516
:100E9C008062904203D123F070034A681343124AD4
:100EAC0090420AD0B0F1804F07D0A2F59432904214
:100EBC0003D002F58062904203D123F44073CA68D8
:100ECC00134323F080034A69134303608B68C362A6
:100EDC000B688362044B984202D001234361704734
:100EEC000B690363F9E700BF002C014038B310B560
:100EFC00044690F83D30EBB1022384F83D30211DBF
:100F0C002068FFF7B9FF012384F8463084F83E309F
:100F1C0084F83F3084F8403084F8413084F8423013
:100F2C0084F8433084F8443084F8453084F83D30FC
:100F3C00002010BD80F83C30FFF706FADCE70120FA
:100F4C00704738B310B5044690F83D30EBB102232E
:100F5C0084F83D30211D2068FFF78EFF012384F8B3
:100F6C00463084F83E3084F83F3084F8403084F8C2
:100F7C00413084F8423084F8433084F8443084F8AB
:100F8C00453084F83D30002010BD80F83C30FFF730
:100F9C0072FFDCE70120704730B4036A23F01003C2
:100FAC000362036A4468826922F4E6420D6842EAED
:100FBC00052223F020038D6843EA05130E4DA84249
:100FCC0009D00D4DA8420ED0446082614A688263FC
:100FDC00036230BC704723F08003CD6843EA0513ED
:100FEC0023F04003EDE724F440644D6944EA8504A2
:100FFC008D6944EA8504E7E7002C014090F83C3009
:10100C00012B22D010B50446012380F83C300C2A69
:10101C000BD8DFE802F0070A0A0A0E0A0A0A120ABB
:10102C000A0A16000068FFF775FE002084F83C00E1
:10103C0010BD0068FFF7B0FFF7E70068FFF798FEF8
:10104C00F3E70068FFF7C6FEEFE70220704710B425
:10105C00846824F47F4442EA03230B4323438360D4
:10106C0010BC704790F83C30012B66D010B504468C
:10107C00012380F83C30022380F83D3002689368ED
:10108C0023F47F4323F0770393600B68402B4AD003
:10109C0013D9602B3DD01ED9702B28D0B3F5005F2F
:1010AC0030D1CB684A6889680068FFF7D0FF2268A6
:1010BC00936843F48043936024E0102B06D004D94A
:1010CC00202B03D0302B01D01CE0DBB91946206853
:1010DC00FFF7C9FE16E0502B14D1CA6849680068A6
:1010EC00FFF79CFE50212068FFF7BDFE0AE0CB689D
:1010FC004A6889680068FFF7AAFF2268936843F082
:10110C0077039360012384F83D30002084F83C0081
:10111C0010BDCA6849680068FFF792FE602120681C
:10112C00FFF7A1FEEEE7CA6849680068FFF776FE94
:10113C0040212068FFF797FEE4E70220704710B4C7
:10114C0001F01F01012303FA01F4036A23EA0403EB
:10115C000362036A8A401343036210BC70470000A9
:10116C000A4669BB90F83E30DBB213F1FF3318BF6F
:10117C000123002B60D110B5002A3DD1022380F849
:10118C003E301146044601220068FFF7D8FF236861
:10119C002B4A934240D02368294A934241D0B3F161
:1011AC00804F3ED0A2F5943293423AD002F5806241
:1011BC00934236D01A6842F001021A6000203AE0DD
:1011CC00042909D008290FD090F84130DBB213F173
:1011DC00FF3318BF0123CCE790F83F30DBB213F19B
:1011EC00FF3318BF0123C4E790F84030DBB213F192
:1011FC00FF3318BF0123BCE7042A05D0082A07D007
:10120C00022380F84130BCE7022380F83F30B8E776
:10121C00022380F84030B4E75A6C42F400425A641E
:10122C00B9E79A6802F00702062A07D01A6842F05A
:10123C0001021A60002010BD012070470020FAE75F
:10124C00002C014090F83C30012B2BD030B4012302
:10125C0080F83C30022380F83D3003685C689D6860
:10126C0024F070040A6822435A6003680E4A9342C1
:10127C000AD0B3F1804F07D0A2F59432934203D039
:10128C0002F58062934204D125F080054A6815432B
:10129C009D60012380F83D30002380F83C301846D7
:1012AC0030BC704702207047002C014090F83C3055
:1012BC00012B22D0012380F83C30CB6823F44073FF
:1012CC008A68134323F480634A68134323F400634E
:1012DC000A68134323F480530A69134323F400531D
:1012EC004A69134323F48043CA6913430268536465
:1012FC00002380F83C3018467047022070470000ED
:10130C00002103E00B4B5B58435004310A480B4B54
:10131C0042189A42F6D30A4A02E0002342F8043BF0
:10132C00084B9A42F9D3FFF759F800F00FF8FEF783
:10133C00CBFF7047FC130008000000200C000020BD
:10134C000C00002074000020FEE7000070B50025A2
:10135C000C4E0D4CA41BA410A54209D100F022F890
:10136C0000250A4E0A4CA41BA410A54205D170BD41
:10137C0056F8253098470135EEE756F82530984752
:10138C000135F2E7F4130008F4130008F413000815
:10139C00F813000803460244934200D1704703F847
:1013AC00011BF9E7F8B500BFF8BC08BC9E467047B6
:0C13BC00F8B500BFF8BC08BC9E467047A6
:1013C80000000000000000000102030406070809ED
:1013D80000000000010203040203040506070809CF
:0C13E8000A0B0C0D0E0F1010010200008B
:0413F40031010008BB
:0413F8000D010008DB
:0C13FC000024F4000100000010000000BC
:040000050800130DCF
:00000001FF
