:020000040800F2
:1000000000500020C5140008810400088304000883
:100010008504000887040008990400080000000017
:100020000000000000000000000000009B04000829
:100030009D040008000000009F040008A1040008BF
:100040000D1500080D1500080D1500080D15000808
:100050000D1500080D1500080D1500080D150008F8
:100060000D1500080D1500080D1500080D150008E8
:100070000D1500080D1500080D1500080D150008D8
:100080000D1500080D1500080D1500080D150008C8
:100090000D1500080D1500080D1500080D150008B8
:1000A0000D1500080D1500080D1500080D150008A8
:1000B000890400080D1500080D1500080D1500082D
:1000C0000D1500080D1500080D1500080D15000888
:1000D0000D1500080D1500080D1500080D15000878
:1000E0000D1500080D1500080D1500080000000092
:1000F0000000000000000000000000000000000000
:0C01000000000000000000005FF808F1A3
:10010C0010B5054C237833B9044B13B10448AFF345
:10011C0000800123237010BD1C0000200000000093
:10012C006815000808B5034B1BB103490348AFF32E
:10013C00008008BD000000002000002068150008A9
:10014C0084B0134B9A6942F010029A619A6902F0DA
:10015C0010020092009A9A6942F020029A619A6900
:10016C0002F020020192019A9A6942F004029A610B
:10017C009A6902F004020292029A9A6942F0080209
:10018C009A619B6903F008030393039B04B07047C7
:10019C000010024030B589B0174C4FF080432360FB
:1001AC004FF6FF73E3601F236360204600F0DEFF11
:1001BC003023019300220392104D2B68029301A966
:1001CC00204601F031F86B68029304220DEB02011A
:1001DC00204601F029F8AB680293082201A92046B9
:1001EC0001F022F8EB6802930C2201A9204601F0E1
:1001FC001BF809B030BD00BF3C00002000000020FF
:10020C0008B50848084B03604FF4E1334360002302
:10021C008360C36003610C2242618361C36101F09E
:10022C001BF908BD840000200044004030B591B09B
:10023C002022002107A801F089F9002401940294DE
:10024C000394049405940225069501230A93102324
:10025C000B930D954FF400230F9306A800F0D4FADE
:10026C000F230193029503944FF480630493059438
:10027C00214601A800F008FD11B030BD08B500F012
:10028C0033F9FFF7D3FFFFF75BFFFFF783FFFFF7B0
:10029C00B7FF094C0021204601F000F8042120464C
:1002AC0000F0FCFF0821204600F0F8FF0C2120464E
:1002BC0000F0F4FFFEE700BF3C00002010B5044640
:1002CC00037F012B09D0237F022B12D0237F042B19
:1002DC001CD0237F082B26D010BD002100F032FE4D
:1002EC00174B18601B68174A116822680B4453633C
:1002FC00E9E70421204600F025FE114B18601B682D
:10030C00104A516822680B449363DFE708212046AA
:10031C0000F018FE0A4B18601B680A4A91682268A4
:10032C000B44D363D5E70C21204600F00BFE044BA5
:10033C0018601B68034AD16822680B441364CBE72E
:10034C00380000200000002082B00E4B9A6942F069
:10035C0001029A619A6902F001020092009ADA692C
:10036C0042F08052DA61DB6903F080530193019B08
:10037C00054A536823F0E06343F00073536002B006
:10038C00704700BF001002400000014030B589B03A
:10039C001D4BDA6942F00102DA61DA6902F00102FE
:1003AC000192019A9A6942F004029A619A6902F0E8
:1003BC0004020292029A9A6942F008029A619B69BD
:1003CC0003F008030393039B032304930224059473
:1003DC0000250695079404A90C4800F013F940F287
:1003EC000443049305940695079404A9084800F067
:1003FC0009F92A460F211C2000F0ACF81C2000F053
:10040C00DDF809B030BD00BF00100240000801400B
:10041C00000C014000B587B00023029303930493B2
:10042C0005930268114B9A4202D007B05DF804FBA9
:10043C0003F5E633DA6942F40032DA61DA6902F480
:10044C0000320092009A9A6942F004029A619B6908
:10045C0003F004030193019B0C23029302230393E7
:10046C00059302A9024800F0CDF8DEE700440040F5
:10047C00000801407047FEE7FEE7FEE708B50248BA
:10048C0000F07DFD08BD00BF3C000020FEE770477A
:10049C007047704708B500F039F808BD7047000088
:1004AC0010B504460E4B18784FF47A73B3FBF0F387
:1004BC000C4A1068B0FBF3F000F08EF868B90F2C02
:1004CC0001D901200AE0002221464FF0FF3000F054
:1004DC0041F8034B5C60002000E0012010BD00BF20
:1004EC00140000201000002008B5074A136843F0E0
:1004FC0010031360032000F01BF80020FFF7D0FF5F
:10050C00FFF722FF002008BD00200240034A1168BB
:10051C00034B1B780B441360704700BFC4000020D2
:10052C0014000020014B1868704700BFC400002065
:10053C00074AD36823F4E0631B041B0C000200F48D
:10054C00E060184340F0BF6040F40030D06070476A
:10055C0000ED00E030B4174BDB68C3F30223C3F1AA
:10056C000704042C28BF04241D1D062D18D9033B99
:10057C004FF0FF3505FA04F421EA0401994005FA1D
:10058C0003F322EA0303194300280BDB0901C9B268
:10059C0000F1604000F5614080F8001330BC7047FA
:1005AC000023E5E700F00F000901C9B2024B195412
:1005BC00F4E700BF00ED00E014ED00E0002807DBDD
:1005CC0000F01F02400901239340024A42F82030F8
:1005DC00704700BF00E100E00138B0F1807F0AD223
:1005EC00064B5860064AF02182F8231000209860D0
:1005FC0007221A6070470120704700BF10E000E02E
:10060C0000ED00E0F0B482B000263246A2E0002DEE
:10061C005AD0012D00D1CE68FF2B69D88446FF2B10
:10062C0069D89500DCF800400F27AF4024EA070496
:10063C0006FA05F52C43CCF800404C6814F0805FAA
:10064C0000F087805F4CA56945F00105A561A469A0
:10065C0004F001040194019C9508AF1C5A4C54F809
:10066C00274002F00307BF004FF00F0C0CFA07FCF9
:10067C0024EA0C0C554CA04243D004F58064A042F3
:10068C0000F0818004F58064A0427ED004F5806483
:10069C00A04234D0042435E04D4FBD4214D00BD9C8
:1006AC004C4FBD4210D007F58037BD420CD0A7F59A
:1006BC008017BD42B0D107E0A7F58017BD4203D02B
:1006CC0007F58037BD42A7D18D687DB1012D08D0CB
:1006DC0044610826A0E7CE6808369DE7CE680C3644
:1006EC009AE70461082697E7002695E7042693E726
:1006FC0000F1040C93E7A2F10805AD0092E7032486
:10070C0000E00024BC4044EA0C0402352E4F47F8AC
:10071C0025404C6814F4803F39D02F4D2C681C4375
:10072C002C604C6814F4003F37D02B4D6C681C4384
:10073C006C604C6814F4801F35D0274DAC681C439A
:10074C00AC604C6814F4001F33D0234DEC68234389
:10075C00EB6001320B6833FA02F430D00124944080
:10076C0023409C42F5D14D68122DB7D094D8022D60
:10077C00B1D07FF64CAF032DB6D0112D7FF44CAF1A
:10078C00CE68043648E70124BCE70224BAE7124DD0
:10079C002C6824EA03042C60C3E70F4D6C6824EA30
:1007AC0003046C60C5E70C4DAC6824EA0304AC6030
:1007BC00C7E7094DEC6824EA0303EB60C9E702B014
:1007CC00F0BC7047001002400000014000080140DE
:1007DC0000002110000031100004014082B0084BD1
:1007EC001B68084AA2FB03235B0A00FB03F0019081
:1007FC0000BF019B5A1E0192002BF9D102B0704729
:10080C0010000020D34D6210002800F0F58170B567
:10081C0082B00446036813F0010F2CD0AB4B5B681D
:10082C0003F00C03042B1DD0A84B5B6803F00C03E6
:10083C00082B12D06368B3F5803F41D0002B55D103
:10084C0003F1804303F504331A6822F480321A60F2
:10085C001A6822F480221A6037E09C4B5B6813F410
:10086C00803FE7D0994B1B6813F4003F03D06368BB
:10087C00002B00F0C381236813F0020F76D0934B4A
:10088C005B6813F00C0F5FD0904B5B6803F00C03AC
:10089C00082B54D02369002B00F08A808C4B01224A
:1008AC001A60FFF73FFE0546884B1B6813F0020FDA
:1008BC0075D1FFF737FE401B0228F5D90320A0E1C4
:1008CC00824A136843F480331360636843B3FFF7C1
:1008DC0029FE05467D4B1B6813F4003FCBD1FFF777
:1008EC0021FE401B6428F5D903208AE1B3F5A02F23
:1008FC0009D0764B1A6822F480321A601A6822F4F6
:10090C0080221A60E1E703F18043A3F53C331A68B7
:10091C0042F480221A601A6842F480321A60D4E7DA
:10092C00FFF700FE0546694B1B6813F4003FA2D08D
:10093C00FFF7F8FD401B6428F5D9032061E1634BF8
:10094C005B6813F4803FA5D1604B1B6813F0020F5A
:10095C0004D02369012B01D0012052E15B4A1368BA
:10096C0023F0F803616943EAC1031360236813F0B1
:10097C00080F32D0A369002B5BD0564B01221A60B2
:10098C00FFF7D0FD0546514B5B6A13F0020F21D1E6
:10099C00FFF7C8FD401B0228F5D9032031E14B4A73
:1009AC00136823F0F803616943EAC1031360DDE7C0
:1009BC00474B00221A60FFF7B5FD0546434B1B68F9
:1009CC0013F0020FD2D0FFF7ADFD401B0228F5D972
:1009DC00032016E10120FFF701FF236813F0040F39
:1009EC0000F09880394BDB6913F0805F33D1374BC3
:1009FC00DA6942F08052DA61DB6903F080530193CB
:100A0C00019B0125344B1B6813F4807F25D0E368D0
:100A1C00012B36D0002B4CD103F1804303F504336A
:100A2C001A6A22F001021A621A6A22F004021A628D
:100A3C002CE0284B00221A60FFF774FD0546234B6F
:100A4C005B6A13F0020FC8D0FFF76CFD401B022845
:100A5C00F5D90320D5E00025D4E71F4A136843F4E9
:100A6C0080731360FFF75EFD06461B4B1B6813F487
:100A7C00807FCCD1FFF756FD801B6428F5D903206D
:100A8C00BFE0124A136A43F001031362E3687BB3BD
:100A9C00FFF748FD06460D4B1B6A13F0020F38D1C9
:100AAC00FFF740FD801B41F288339842F3D90320B5
:100ABC00A7E0052B12D0054B1A6A22F001021A622C
:100ACC001A6A22F004021A62E0E700BF001002402A
:100ADC000000424280044242007000404C4B1A6AB3
:100AEC0042F004021A621A6A42F001021A62CDE75D
:100AFC00FFF718FD0646464B1B6A13F0020F08D091
:100B0C00FFF710FD801B41F288339842F3D9032084
:100B1C0077E0E5B9E369002B72D03D4A526802F0E8
:100B2C000C02082A56D0022B17D03A4B00221A601E
:100B3C00FFF7F8FC0446364B1B6813F0007F47D0D8
:100B4C00FFF7F0FC001B0228F5D9032059E0304ACE
:100B5C00D36923F08053D361DCE72E4B00221A605B
:100B6C00FFF7E0FC05462A4B1B6813F0007F06D00C
:100B7C00FFF7D8FC401B0228F5D9032041E0236A7B
:100B8C00B3F5803F1AD022494B6823F47413226AC0
:100B9C00606A024313434B601E4B01221A60FFF73D
:100BAC00C1FC04461A4B1B6813F0007F0ED1FFF7F3
:100BBC00B9FC001B0228F5D9032022E0144A536823
:100BCC0023F40033A1680B435360DCE7002018E0EA
:100BDC00002016E0012B16D00D4B5B6803F480311E
:100BEC00226A914201D001200BE003F47013626A77
:100BFC0093420AD0012004E001207047012000E05C
:100C0C00002002B070BD0120FBE70020F9E700BF17
:100C1C00001002406000424210B487B0164C94E8B9
:100C2C000F000DF1180C0CE90F00238AADF80430FD
:100C3C00124B5B6803F00C02082A1AD1C3F38342EF
:100C4C00624412F8102C13F4803F05D10C4800FBC1
:100C5C0002F007B010BC7047084B5B68C3F340430D
:100C6C00634413F8143C074800FB02F0B0FBF3F0AC
:100C7C00EFE70448EDE700BF9815000800100240AC
:100C8C0000093D0000127A00002800F0A38070B526
:100C9C000446524B1B6803F007038B420CD24F4A9D
:100CAC00136823F007030B431360136803F0070367
:100CBC008B4201D0012070BD236813F0020F17D0B6
:100CCC0013F0040F04D0464A536843F4E0635360B6
:100CDC00236813F0080F04D0414A536843F460535F
:100CEC0053603F4A536823F0F003A06803435360FA
:100CFC000D46236813F0010F31D06368012B20D00F
:100D0C00022B25D0364A126812F0020F64D03449F7
:100D1C004A6822F0030213434B60FFF703FC0646BC
:100D2C002F4B5B6803F00C036268B3EB820F16D099
:100D3C00FFF7F8FB801B41F288339842F0D903206F
:100D4C00B9E7274A126812F4003FE0D10120B2E75C
:100D5C00234A126812F0007FD9D10120ABE71F4B58
:100D6C001B6803F00703AB420CD91C4A136823F031
:100D7C0007032B431360136803F00703AB4201D046
:100D8C00012098E7236813F0040F06D0144A536827
:100D9C0023F4E063E1680B435360236813F0080FFE
:100DAC0007D00F4A536823F46053216943EAC10307
:100DBC005360FFF731FF0A4B5B68C3F30313094A17
:100DCC00D35CD840084B1860084B1868FFF768FBD9
:100DDC00002070E70120704701206CE700200240E2
:100DEC0000100240801500081000002018000020A0
:100DFC00014B1868704700BF1000002008B5FFF7C2
:100E0C00F7FF044B5B68C3F30223034AD35CD8405F
:100E1C0008BD00BF001002409015000808B5FFF790
:100E2C00E7FF044B5B68C3F3C223034AD35CD8408F
:100E3C0008BD00BF001002409015000870B4036A92
:100E4C0023F001030362036A4268846924F073048B
:100E5C000D6845EA040623F002048B6823430D4D0C
:100E6C00A84209D00B4DA8420DD0426086614A6859
:100E7C004263036270BC704723F00803CC682343C1
:100E8C0023F00403EEE722F440724C6914438A69A0
:100E9C002243EAE7002C014030B4036A23F4807348
:100EAC000362036A4268C46924F073040D682C431E
:100EBC0023F400738D6843EA05230F4DA84209D033
:100ECC000D4DA8420ED04260C4614A68C2630362F1
:100EDC0030BC704723F40063CD6843EA052323F448
:100EEC008063EDE722F440524D6942EA05128D69A8
:100EFC0042EA0512E7E700BF002C014030B4036A58
:100F0C0023F480530362036A4468C26922F4E64204
:100F1C000D6842EA052223F400538D6843EA053339
:100F2C00074DA84206D04460C2614A68026403625D
:100F3C0030BC704724F480444D6944EA8514F2E7D0
:100F4C00002C01400C2914D8DFE801F0071313130F
:100F5C000A1313130D13131310000368586B704707
:100F6C000368986B70470368D86B70470368186CFC
:100F7C00704700207047704770477047704710B536
:100F8C00044603681A6912F0020F11D0DA6812F0E5
:100F9C00020F0DD06FF002021A6101230377036870
:100FAC009B6913F0030F70D0FFF7E6FF0023237744
:100FBC0023681A6912F0040F12D0DA6812F0040FC9
:100FCC000ED06FF004021A610223237723689B6909
:100FDC0013F4407F5FD02046FFF7CEFF002323772A
:100FEC0023681A6912F0080F12D0DA6812F0080F91
:100FFC000ED06FF008021A61042323772368DB6993
:10100C0013F0030F4ED02046FFF7B6FF00232377D3
:10101C0023681A6912F0100F12D0DA6812F0100F50
:10102C000ED06FF010021A61082323772368DB6956
:10103C0013F4407F3DD02046FFF79EFF002323771B
:10104C0023681A6912F0010F03D0DA6812F0010F4D
:10105C0036D123681A6912F0800F03D0DA6812F0C7
:10106C00800F34D123681A6912F0400F03D0DA686C
:10107C0012F0400F32D123681A6912F0200F03D0FE
:10108C00DA6812F0200F30D110BDFFF717F92046A7
:10109C00FFF773FF8AE72046FFF710F92046FFF7AA
:1010AC006CFF9BE72046FFF709F92046FFF765FF29
:1010BC00ACE72046FFF702F92046FFF75EFFBDE7DD
:1010CC006FF001021A612046FFF755FFC1E76FF080
:1010DC0080021A61204600F076F9C3E76FF04002F7
:1010EC001A612046FFF74AFFC5E76FF020021A612C
:1010FC00204600F067F9C7E703681B4A90420AD004
:10110C00B0F1804F07D0A2F59432904203D002F593
:10111C008062904203D123F070034A681343124A51
:10112C0090420AD0B0F1804F07D0A2F59432904291
:10113C0003D002F58062904203D123F44073CA6855
:10114C00134323F080034A69134303608B68C36223
:10115C000B688362044B984202D0012343617047B1
:10116C000B690363F9E700BF002C014038B310B5DD
:10117C00044690F83D30EBB1022384F83D30211D3C
:10118C002068FFF7B9FF012384F8463084F83E301D
:10119C0084F83F3084F8403084F8413084F8423091
:1011AC0084F8433084F8443084F8453084F83D307A
:1011BC00002010BD80F83C30FFF7E8F8DCE7012098
:1011CC007047000030B4036A23F010030362036A13
:1011DC004468826922F4E6420D6842EA052223F053
:1011EC0020038D6843EA05130E4DA84209D00D4D1E
:1011FC00A8420ED0446082614A688263036230BCAC
:10120C00704723F08003CD6843EA051323F04003B5
:10121C00EDE724F440644D6944EA85048D6944EAA1
:10122C008504E7E7002C014090F83C30012B22D0DC
:10123C0010B50446012380F83C300C2A0BD8DFE8AB
:10124C0002F0070A0A0A0E0A0A0A120A0A0A160009
:10125C000068FFF7F3FD002084F83C0010BD006827
:10126C00FFF7B0FFF7E70068FFF716FEF3E700683B
:10127C00FFF744FEEFE70220704710B401F01F01A6
:10128C00012303FA01F4036A23EA04030362036AE9
:10129C008A401343036210BC704700000A46C9B968
:1012AC0090F83E30DBB213F1FF3318BF0123002B53
:1012BC0040F0828010B54ABB022380F83E300C2AE5
:1012CC0039D8DFE802F033383838573838385D38D9
:1012DC0038386300042909D008290FD090F8413020
:1012EC00DBB213F1FF3318BF0123E0E790F83F3076
:1012FC00DBB213F1FF3318BF0123D8E790F840306D
:10130C00DBB213F1FF3318BF0123D0E7042A05D059
:10131C00082A07D0022380F84130D0E7022380F856
:10132C003F30CCE7022380F84030C8E70168CB6837
:10133C0043F00203CB601146044601220068FFF71C
:10134C009CFF23681E4A934226D023681C4A934272
:10135C0027D0B3F1804F24D0A2F59432934220D001
:10136C0002F5806293421CD01A6842F001021A60A6
:10137C00002020E00168CB6843F00403CB60DAE77F
:10138C000168CB6843F00803CB60D4E70168CB68F5
:10139C0043F01003CB60CEE75A6C42F400425A641F
:1013AC00D3E79A6802F00702062A07D01A6842F0BF
:1013BC0001021A60002010BD012070470020FAE7DE
:1013CC00002C01407047704738B504460268136919
:1013DC0023F44053C1680B431361836802691343C0
:1013EC0042691A430168CB6823F4B05323F00C0311
:1013FC001343CB600268536923F4407381690B4338
:10140C0053610268124B9A421FD0FFF7F7FC00EBB6
:10141C00800000EB800063689B00B0FBF3F00D4D87
:10142C00A5FB00325109642202FB11021301323375
:10143C00A5FB03235B0903F0F00202EB011203F09E
:10144C000F03216813448B6038BDFFF7E7FCDEE720
:10145C00003801401F85EB5158B310B5044690F885
:10146C0039300BB3242384F839302268D36823F441
:10147C000053D3602046FFF7A7FF2268136923F4BB
:10148C00904313612268536923F02A035361226845
:10149C00D36843F40053D3600020E063202384F826
:1014AC00393084F83A3010BD80F83830FEF7B2FF8E
:1014BC00D8E7012070470000002103E00B4B5B587C
:1014CC00435004310A480B4B42189A42F6D30A4A4D
:1014DC0002E0002342F8043B084B9A42F9D3FEF792
:1014EC00DDFF00F00FF8FEF7C9FE7047B4150008D9
:1014FC00000000201C0000201C000020C800002060
:10150C00FEE7000070B500250C4E0D4CA41BA4107A
:10151C00A54209D100F022F800250A4E0A4CA41B62
:10152C00A410A54205D170BD56F825309847013559
:10153C00EEE756F8253098470135F2E7AC15000870
:10154C00AC150008AC150008B015000803460244A1
:10155C00934200D1704703F8011BF9E7F8B500BFBF
:10156C00F8BC08BC9E467047F8B500BFF8BC08BC78
:04157C009E467047D0
:101580000000000000000000010203040607080933
:101590000000000001020304020304050607080915
:0C15A0000A0B0C0D0E0F101001020000D1
:0415AC003101000801
:0415B0000D01000821
:1015B40050C30000401F0000A00F0000D00700002F
:0C15C4000024F4000100000010000000F2
:04000005080014C516
:00000001FF
